{
  "_format": "hh-sol-artifact-1",
  "contractName": "TokenizedBallot",
  "sourceName": "contracts/TokenizedBallot.sol",
  "abi": [
    {
      "inputs": [
        {
          "internalType": "bytes32[]",
          "name": "proposalNames",
          "type": "bytes32[]"
        },
        {
          "internalType": "address",
          "name": "_tokenContract",
          "type": "address"
        },
        {
          "internalType": "uint256",
          "name": "_referenceBlock",
          "type": "uint256"
        }
      ],
      "stateMutability": "nonpayable",
      "type": "constructor"
    },
    {
      "inputs": [
        {
          "internalType": "uint256",
          "name": "",
          "type": "uint256"
        }
      ],
      "name": "proposals",
      "outputs": [
        {
          "internalType": "bytes32",
          "name": "name",
          "type": "bytes32"
        },
        {
          "internalType": "uint256",
          "name": "voteCount",
          "type": "uint256"
        }
      ],
      "stateMutability": "view",
      "type": "function"
    },
    {
      "inputs": [],
      "name": "referenceBlock",
      "outputs": [
        {
          "internalType": "uint256",
          "name": "",
          "type": "uint256"
        }
      ],
      "stateMutability": "view",
      "type": "function"
    },
    {
      "inputs": [],
      "name": "tokenContract",
      "outputs": [
        {
          "internalType": "contract ITokenizedVotes",
          "name": "",
          "type": "address"
        }
      ],
      "stateMutability": "view",
      "type": "function"
    },
    {
      "inputs": [
        {
          "internalType": "uint256",
          "name": "proposal",
          "type": "uint256"
        },
        {
          "internalType": "uint256",
          "name": "amount",
          "type": "uint256"
        }
      ],
      "name": "vote",
      "outputs": [],
      "stateMutability": "nonpayable",
      "type": "function"
    },
    {
      "inputs": [
        {
          "internalType": "address",
          "name": "account",
          "type": "address"
        }
      ],
      "name": "votePower",
      "outputs": [
        {
          "internalType": "uint256",
          "name": "votePower_",
          "type": "uint256"
        }
      ],
      "stateMutability": "view",
      "type": "function"
    },
    {
      "inputs": [
        {
          "internalType": "address",
          "name": "",
          "type": "address"
        }
      ],
      "name": "votePowerSpent",
      "outputs": [
        {
          "internalType": "uint256",
          "name": "",
          "type": "uint256"
        }
      ],
      "stateMutability": "view",
      "type": "function"
    },
    {
      "inputs": [],
      "name": "winningName",
      "outputs": [
        {
          "internalType": "bytes32",
          "name": "winnerName_",
          "type": "bytes32"
        }
      ],
      "stateMutability": "view",
      "type": "function"
    },
    {
      "inputs": [],
      "name": "winningProposal",
      "outputs": [
        {
          "internalType": "uint256",
          "name": "winningProposal_",
          "type": "uint256"
        }
      ],
      "stateMutability": "view",
      "type": "function"
    }
  ],
  "bytecode": "0x60806040523480156200001157600080fd5b5060405162000db738038062000db7833981810160405281019062000037919062000384565b60005b8351811015620000ce5760026040518060400160405280868481518110620000675762000066620003ff565b5b6020026020010151815260200160008152509080600181540180825580915050600190039060005260206000209060020201600090919091909150600082015181600001556020820151816001015550508080620000c5906200045d565b9150506200003a565b5081600160006101000a81548173ffffffffffffffffffffffffffffffffffffffff021916908373ffffffffffffffffffffffffffffffffffffffff16021790555080600081905550505050620004aa565b6000604051905090565b600080fd5b600080fd5b600080fd5b6000601f19601f8301169050919050565b7f4e487b7100000000000000000000000000000000000000000000000000000000600052604160045260246000fd5b620001848262000139565b810181811067ffffffffffffffff82111715620001a657620001a56200014a565b5b80604052505050565b6000620001bb62000120565b9050620001c9828262000179565b919050565b600067ffffffffffffffff821115620001ec57620001eb6200014a565b5b602082029050602081019050919050565b600080fd5b6000819050919050565b620002178162000202565b81146200022357600080fd5b50565b60008151905062000237816200020c565b92915050565b6000620002546200024e84620001ce565b620001af565b905080838252602082019050602084028301858111156200027a5762000279620001fd565b5b835b81811015620002a7578062000292888262000226565b8452602084019350506020810190506200027c565b5050509392505050565b600082601f830112620002c957620002c862000134565b5b8151620002db8482602086016200023d565b91505092915050565b600073ffffffffffffffffffffffffffffffffffffffff82169050919050565b60006200031182620002e4565b9050919050565b620003238162000304565b81146200032f57600080fd5b50565b600081519050620003438162000318565b92915050565b6000819050919050565b6200035e8162000349565b81146200036a57600080fd5b50565b6000815190506200037e8162000353565b92915050565b600080600060608486031215620003a0576200039f6200012a565b5b600084015167ffffffffffffffff811115620003c157620003c06200012f565b5b620003cf86828701620002b1565b9350506020620003e28682870162000332565b9250506040620003f5868287016200036d565b9150509250925092565b7f4e487b7100000000000000000000000000000000000000000000000000000000600052603260045260246000fd5b7f4e487b7100000000000000000000000000000000000000000000000000000000600052601160045260246000fd5b60006200046a8262000349565b91507fffffffffffffffffffffffffffffffffffffffffffffffffffffffffffffffff82036200049f576200049e6200042e565b5b600182019050919050565b6108fd80620004ba6000396000f3fe608060405234801561001057600080fd5b50600436106100885760003560e01c80639e90d0d91161005b5780639e90d0d914610118578063b384abef14610148578063d94c8caa14610164578063e490e6991461018257610088565b8063013cf08b1461008d5780631f9ff6d7146100be57806355a373d6146100dc578063609ff1bd146100fa575b600080fd5b6100a760048036038101906100a291906104b1565b6101b2565b6040516100b5929190610506565b60405180910390f35b6100c66101e6565b6040516100d3919061052f565b60405180910390f35b6100e461021a565b6040516100f191906105c9565b60405180910390f35b610102610240565b60405161010f91906105e4565b60405180910390f35b610132600480360381019061012d919061063d565b6102c8565b60405161013f91906105e4565b60405180910390f35b610162600480360381019061015d919061066a565b6102e0565b005b61016c6103c7565b60405161017991906105e4565b60405180910390f35b61019c6004803603810190610197919061063d565b6103cd565b6040516101a991906105e4565b60405180910390f35b600281815481106101c257600080fd5b90600052602060002090600202016000915090508060000154908060010154905082565b600060026101f2610240565b81548110610203576102026106aa565b5b906000526020600020906002020160000154905090565b600160009054906101000a900473ffffffffffffffffffffffffffffffffffffffff1681565b6000806000905060005b6002805490508110156102c357816002828154811061026c5761026b6106aa565b5b90600052602060002090600202016001015411156102b05760028181548110610298576102976106aa565b5b90600052602060002090600202016001015491508092505b80806102bb90610708565b91505061024a565b505090565b60036020528060005260406000206000915090505481565b60006102eb336103cd565b905081811015610330576040517f08c379a0000000000000000000000000000000000000000000000000000000008152600401610327906107f9565b60405180910390fd5b81600360003373ffffffffffffffffffffffffffffffffffffffff1673ffffffffffffffffffffffffffffffffffffffff168152602001908152602001600020600082825461037f9190610819565b92505081905550816002848154811061039b5761039a6106aa565b5b906000526020600020906002020160010160008282546103bb9190610819565b92505081905550505050565b60005481565b6000600160009054906101000a900473ffffffffffffffffffffffffffffffffffffffff1673ffffffffffffffffffffffffffffffffffffffff16633a46b1a8836000546040518363ffffffff1660e01b815260040161042e92919061085c565b602060405180830381865afa15801561044b573d6000803e3d6000fd5b505050506040513d601f19601f8201168201806040525081019061046f919061089a565b9050919050565b600080fd5b6000819050919050565b61048e8161047b565b811461049957600080fd5b50565b6000813590506104ab81610485565b92915050565b6000602082840312156104c7576104c6610476565b5b60006104d58482850161049c565b91505092915050565b6000819050919050565b6104f1816104de565b82525050565b6105008161047b565b82525050565b600060408201905061051b60008301856104e8565b61052860208301846104f7565b9392505050565b600060208201905061054460008301846104e8565b92915050565b600073ffffffffffffffffffffffffffffffffffffffff82169050919050565b6000819050919050565b600061058f61058a6105858461054a565b61056a565b61054a565b9050919050565b60006105a182610574565b9050919050565b60006105b382610596565b9050919050565b6105c3816105a8565b82525050565b60006020820190506105de60008301846105ba565b92915050565b60006020820190506105f960008301846104f7565b92915050565b600061060a8261054a565b9050919050565b61061a816105ff565b811461062557600080fd5b50565b60008135905061063781610611565b92915050565b60006020828403121561065357610652610476565b5b600061066184828501610628565b91505092915050565b6000806040838503121561068157610680610476565b5b600061068f8582860161049c565b92505060206106a08582860161049c565b9150509250929050565b7f4e487b7100000000000000000000000000000000000000000000000000000000600052603260045260246000fd5b7f4e487b7100000000000000000000000000000000000000000000000000000000600052601160045260246000fd5b60006107138261047b565b91507fffffffffffffffffffffffffffffffffffffffffffffffffffffffffffffffff8203610745576107446106d9565b5b600182019050919050565b600082825260208201905092915050565b7f546f6b656e697a656442616c6c6f743a20747279696e6720746f20766f74652060008201527f6d6f7265207468616e2074686520766f746520706f77657220617661696c616260208201527f6c6520666f7220746865206163636f756e740000000000000000000000000000604082015250565b60006107e3605283610750565b91506107ee82610761565b606082019050919050565b60006020820190508181036000830152610812816107d6565b9050919050565b60006108248261047b565b915061082f8361047b565b9250828201905080821115610847576108466106d9565b5b92915050565b610856816105ff565b82525050565b6000604082019050610871600083018561084d565b61087e60208301846104f7565b9392505050565b60008151905061089481610485565b92915050565b6000602082840312156108b0576108af610476565b5b60006108be84828501610885565b9150509291505056fea26469706673582212209a7414a2f32eef8d2699e70354e0f06bb4cb5bb8cfbe21808b1c9a5fa1e96e2364736f6c63430008110033",
  "linkReferences": {},
  "deployedLinkReferences": {}
}